{
  "contractName": "Election",
  "abi": [
    {
      "inputs": [
        {
          "internalType": "uint256",
          "name": "_electionDuration",
          "type": "uint256"
        }
      ],
      "stateMutability": "nonpayable",
      "type": "constructor"
    },
    {
      "anonymous": false,
      "inputs": [
        {
          "indexed": false,
          "internalType": "uint256",
          "name": "_id",
          "type": "uint256"
        },
        {
          "indexed": false,
          "internalType": "uint256",
          "name": "_constituencyId",
          "type": "uint256"
        },
        {
          "indexed": false,
          "internalType": "uint256",
          "name": "_partyId",
          "type": "uint256"
        },
        {
          "indexed": false,
          "internalType": "string",
          "name": "_name",
          "type": "string"
        }
      ],
      "name": "addedCandidateEvent",
      "type": "event"
    },
    {
      "anonymous": false,
      "inputs": [
        {
          "indexed": false,
          "internalType": "uint256",
          "name": "_id",
          "type": "uint256"
        },
        {
          "indexed": false,
          "internalType": "string",
          "name": "_name",
          "type": "string"
        }
      ],
      "name": "addedConstituencyEvent",
      "type": "event"
    },
    {
      "anonymous": false,
      "inputs": [
        {
          "indexed": false,
          "internalType": "uint256",
          "name": "_id",
          "type": "uint256"
        },
        {
          "indexed": false,
          "internalType": "string",
          "name": "_name",
          "type": "string"
        }
      ],
      "name": "addedPartyEvent",
      "type": "event"
    },
    {
      "anonymous": false,
      "inputs": [
        {
          "indexed": false,
          "internalType": "bytes32",
          "name": "_id",
          "type": "bytes32"
        }
      ],
      "name": "addedVoterEvent",
      "type": "event"
    },
    {
      "anonymous": false,
      "inputs": [
        {
          "indexed": false,
          "internalType": "uint256",
          "name": "_constituencyId",
          "type": "uint256"
        },
        {
          "indexed": false,
          "internalType": "uint256",
          "name": "_candidateId",
          "type": "uint256"
        },
        {
          "indexed": false,
          "internalType": "uint256",
          "name": "_voteCount",
          "type": "uint256"
        }
      ],
      "name": "publishVoteCnt",
      "type": "event"
    },
    {
      "anonymous": false,
      "inputs": [
        {
          "indexed": false,
          "internalType": "uint256",
          "name": "_candidateId",
          "type": "uint256"
        },
        {
          "indexed": false,
          "internalType": "bytes32",
          "name": "_voterId",
          "type": "bytes32"
        }
      ],
      "name": "votedEvent",
      "type": "event"
    },
    {
      "inputs": [],
      "name": "admin",
      "outputs": [
        {
          "internalType": "address",
          "name": "",
          "type": "address"
        }
      ],
      "stateMutability": "view",
      "type": "function",
      "constant": true
    },
    {
      "inputs": [],
      "name": "electionEndTime",
      "outputs": [
        {
          "internalType": "uint256",
          "name": "",
          "type": "uint256"
        }
      ],
      "stateMutability": "view",
      "type": "function",
      "constant": true
    },
    {
      "inputs": [
        {
          "internalType": "address",
          "name": "",
          "type": "address"
        }
      ],
      "name": "hasVoted",
      "outputs": [
        {
          "internalType": "bool",
          "name": "",
          "type": "bool"
        }
      ],
      "stateMutability": "view",
      "type": "function",
      "constant": true
    },
    {
      "inputs": [
        {
          "internalType": "uint256",
          "name": "",
          "type": "uint256"
        }
      ],
      "name": "parties",
      "outputs": [
        {
          "internalType": "string",
          "name": "",
          "type": "string"
        }
      ],
      "stateMutability": "view",
      "type": "function",
      "constant": true
    },
    {
      "inputs": [
        {
          "internalType": "address",
          "name": "",
          "type": "address"
        }
      ],
      "name": "voterConstituencyIndex",
      "outputs": [
        {
          "internalType": "uint256",
          "name": "",
          "type": "uint256"
        }
      ],
      "stateMutability": "view",
      "type": "function",
      "constant": true
    },
    {
      "inputs": [
        {
          "internalType": "address",
          "name": "",
          "type": "address"
        }
      ],
      "name": "voterIds",
      "outputs": [
        {
          "internalType": "bytes32",
          "name": "",
          "type": "bytes32"
        }
      ],
      "stateMutability": "view",
      "type": "function",
      "constant": true
    },
    {
      "inputs": [
        {
          "internalType": "uint256",
          "name": "_id",
          "type": "uint256"
        },
        {
          "internalType": "string",
          "name": "_name",
          "type": "string"
        }
      ],
      "name": "addConstituency",
      "outputs": [],
      "stateMutability": "nonpayable",
      "type": "function"
    },
    {
      "inputs": [
        {
          "internalType": "uint256",
          "name": "_constituencyId",
          "type": "uint256"
        },
        {
          "internalType": "uint256",
          "name": "_id",
          "type": "uint256"
        },
        {
          "internalType": "uint256",
          "name": "_partyId",
          "type": "uint256"
        },
        {
          "internalType": "string",
          "name": "_name",
          "type": "string"
        }
      ],
      "name": "addCandidate",
      "outputs": [],
      "stateMutability": "nonpayable",
      "type": "function"
    },
    {
      "inputs": [
        {
          "internalType": "uint256",
          "name": "_id",
          "type": "uint256"
        },
        {
          "internalType": "string",
          "name": "_name",
          "type": "string"
        }
      ],
      "name": "addParty",
      "outputs": [],
      "stateMutability": "nonpayable",
      "type": "function"
    },
    {
      "inputs": [
        {
          "internalType": "address",
          "name": "_address",
          "type": "address"
        },
        {
          "internalType": "uint256",
          "name": "_constituencyId",
          "type": "uint256"
        }
      ],
      "name": "addVoter",
      "outputs": [],
      "stateMutability": "nonpayable",
      "type": "function"
    },
    {
      "inputs": [
        {
          "internalType": "uint256",
          "name": "_candidateId",
          "type": "uint256"
        }
      ],
      "name": "vote",
      "outputs": [],
      "stateMutability": "nonpayable",
      "type": "function"
    },
    {
      "inputs": [],
      "name": "publishResult",
      "outputs": [],
      "stateMutability": "nonpayable",
      "type": "function"
    }
  ],
  "bytecode": "0x608060405234801561001057600080fd5b506040516114923803806114928339818101604052602081101561003357600080fd5b810190808051906020019092919050505033600660006101000a81548173ffffffffffffffffffffffffffffffffffffffff021916908373ffffffffffffffffffffffffffffffffffffffff160217905550804201600781905550506113f48061009e6000396000f3fe608060405234801561001057600080fd5b50600436106100b45760003560e01c80639e136e64116100715780639e136e6414610371578063b2f5ae421461038f578063b9f05f2f14610454578063c3524be6146104a2578063f5ea0106146104ac578063f851a4401461052f576100b4565b80630121b93f146100b9578063053f6788146100e757806309eef43e146101c05780632ace8f0b1461021a57806352c183dd1461027257806370651a18146102ca575b600080fd5b6100e5600480360360208110156100cf57600080fd5b8101908080359060200190929190505050610563565b005b6101be600480360360808110156100fd57600080fd5b810190808035906020019092919080359060200190929190803590602001909291908035906020019064010000000081111561013857600080fd5b82018360208201111561014a57600080fd5b8035906020019184600183028401116401000000008311171561016c57600080fd5b91908080601f016020809104026020016040519081016040528093929190818152602001838380828437600081840152601f19601f8201169050808301925050505050505091929192905050506107f2565b005b610202600480360360208110156101d657600080fd5b81019080803573ffffffffffffffffffffffffffffffffffffffff169060200190929190505050610a0b565b60405180821515815260200191505060405180910390f35b61025c6004803603602081101561023057600080fd5b81019080803573ffffffffffffffffffffffffffffffffffffffff169060200190929190505050610a2b565b6040518082815260200191505060405180910390f35b6102b46004803603602081101561028857600080fd5b81019080803573ffffffffffffffffffffffffffffffffffffffff169060200190929190505050610a43565b6040518082815260200191505060405180910390f35b6102f6600480360360208110156102e057600080fd5b8101908080359060200190929190505050610a5b565b6040518080602001828103825283818151815260200191508051906020019080838360005b8381101561033657808201518184015260208101905061031b565b50505050905090810190601f1680156103635780820380516001836020036101000a031916815260200191505b509250505060405180910390f35b610379610b0b565b6040518082815260200191505060405180910390f35b610452600480360360408110156103a557600080fd5b8101908080359060200190929190803590602001906401000000008111156103cc57600080fd5b8201836020820111156103de57600080fd5b8035906020019184600183028401116401000000008311171561040057600080fd5b91908080601f016020809104026020016040519081016040528093929190818152602001838380828437600081840152601f19601f820116905080830192505050505050509192919290505050610b11565b005b6104a06004803603604081101561046a57600080fd5b81019080803573ffffffffffffffffffffffffffffffffffffffff16906020019092919080359060200190929190505050610c80565b005b6104aa610e3c565b005b61052d600480360360408110156104c257600080fd5b8101908080359060200190929190803590602001906401000000008111156104e957600080fd5b8201836020820111156104fb57600080fd5b8035906020019184600183028401116401000000008311171561051d57600080fd5b909192939192939050505061105e565b005b61053761114b565b604051808273ffffffffffffffffffffffffffffffffffffffff16815260200191505060405180910390f35b6000801b600360003373ffffffffffffffffffffffffffffffffffffffff1673ffffffffffffffffffffffffffffffffffffffff1681526020019081526020016000205414156105fe576040517f08c379a00000000000000000000000000000000000000000000000000000000081526004018080602001828103825260248152602001806113766024913960400191505060405180910390fd5b600460003373ffffffffffffffffffffffffffffffffffffffff1673ffffffffffffffffffffffffffffffffffffffff16815260200190815260200160002060009054906101000a900460ff16156106a1576040517f08c379a000000000000000000000000000000000000000000000000000000000815260040180806020018281038252602581526020018061139a6025913960400191505060405180910390fd5b6001600460003373ffffffffffffffffffffffffffffffffffffffff1673ffffffffffffffffffffffffffffffffffffffff16815260200190815260200160002060006101000a81548160ff021916908315150217905550600080600560003373ffffffffffffffffffffffffffffffffffffffff1673ffffffffffffffffffffffffffffffffffffffff1681526020019081526020016000205481526020019081526020016000206002016000828152602001908152602001600020600301600081548092919060010191905055507fe8424f00e5553799734f214f977b4617239677af59259efde9761eacbe9c7afc81600360003373ffffffffffffffffffffffffffffffffffffffff1673ffffffffffffffffffffffffffffffffffffffff16815260200190815260200160002054604051808381526020018281526020019250505060405180910390a150565b600660009054906101000a900473ffffffffffffffffffffffffffffffffffffffff1673ffffffffffffffffffffffffffffffffffffffff163373ffffffffffffffffffffffffffffffffffffffff161461084c57600080fd5b826000808681526020019081526020016000206002016000858152602001908152602001600020600001819055508160008086815260200190815260200160002060020160008581526020019081526020016000206001018190555060008060008681526020019081526020016000206002016000858152602001908152602001600020600301819055508060008086815260200190815260200160002060020160008581526020019081526020016000206002019080519060200190610914929190611258565b506000808581526020019081526020016000206003018390806001815401808255809150506001900390600052602060002001600090919091909150557f4854998db36782d0d2e2f8764088255ab6b2698735bb7ba7f8f349489971e59f838584846040518085815260200184815260200183815260200180602001828103825283818151815260200191508051906020019080838360005b838110156109c85780820151818401526020810190506109ad565b50505050905090810190601f1680156109f55780820380516001836020036101000a031916815260200191505b509550505050505060405180910390a150505050565b60046020528060005260406000206000915054906101000a900460ff1681565b60056020528060005260406000206000915090505481565b60036020528060005260406000206000915090505481565b60026020528060005260406000206000915090508054600181600116156101000203166002900480601f016020809104026020016040519081016040528092919081815260200182805460018160011615610100020316600290048015610b035780601f10610ad857610100808354040283529160200191610b03565b820191906000526020600020905b815481529060010190602001808311610ae657829003601f168201915b505050505081565b60075481565b600660009054906101000a900473ffffffffffffffffffffffffffffffffffffffff1673ffffffffffffffffffffffffffffffffffffffff163373ffffffffffffffffffffffffffffffffffffffff1614610b6b57600080fd5b8160008084815260200190815260200160002060000181905550806000808481526020019081526020016000206001019080519060200190610bae929190611258565b5060018290806001815401808255809150506001900390600052602060002001600090919091909150557fcd171d5a2b537635bd5f44c2e31f288fc9965daf76f6590799aca72ec695bdcc82826040518083815260200180602001828103825283818151815260200191508051906020019080838360005b83811015610c41578082015181840152602081019050610c26565b50505050905090810190601f168015610c6e5780820380516001836020036101000a031916815260200191505b50935050505060405180910390a15050565b600660009054906101000a900473ffffffffffffffffffffffffffffffffffffffff1673ffffffffffffffffffffffffffffffffffffffff163373ffffffffffffffffffffffffffffffffffffffff1614610cda57600080fd5b610ce382611171565b600360008473ffffffffffffffffffffffffffffffffffffffff1673ffffffffffffffffffffffffffffffffffffffff168152602001908152602001600020819055506000600460008473ffffffffffffffffffffffffffffffffffffffff1673ffffffffffffffffffffffffffffffffffffffff16815260200190815260200160002060006101000a81548160ff02191690831515021790555080600560008473ffffffffffffffffffffffffffffffffffffffff1673ffffffffffffffffffffffffffffffffffffffff168152602001908152602001600020819055507f8217bc599f40634de49de060c23706363b5c90ce2546c9601d608e5320cf6d6e600360008473ffffffffffffffffffffffffffffffffffffffff1673ffffffffffffffffffffffffffffffffffffffff168152602001908152602001600020546040518082815260200191505060405180910390a15050565b600660009054906101000a900473ffffffffffffffffffffffffffffffffffffffff1673ffffffffffffffffffffffffffffffffffffffff163373ffffffffffffffffffffffffffffffffffffffff1614610e9657600080fd5b60005b60018054905081101561105b5760005b60008060018481548110610eb957fe5b906000526020600020015481526020019081526020016000206003018054905081101561104d577f49228a5db46c5c68cfc24785979c1798b43f2cdad16cc1d9980e483d68b9244260018381548110610f0e57fe5b906000526020600020015460008060018681548110610f2957fe5b90600052602060002001548152602001908152602001600020600201600080600060018881548110610f5757fe5b906000526020600020015481526020019081526020016000206003018581548110610f7e57fe5b906000526020600020015481526020019081526020016000206000015460008060018781548110610fab57fe5b90600052602060002001548152602001908152602001600020600201600080600060018981548110610fd957fe5b90600052602060002001548152602001908152602001600020600301868154811061100057fe5b906000526020600020015481526020019081526020016000206003015460405180848152602001838152602001828152602001935050505060405180910390a18080600101915050610ea9565b508080600101915050610e99565b50565b600660009054906101000a900473ffffffffffffffffffffffffffffffffffffffff1673ffffffffffffffffffffffffffffffffffffffff163373ffffffffffffffffffffffffffffffffffffffff16146110b857600080fd5b81816002600086815260200190815260200160002091906110da9291906112d8565b507fc2e48bcc3d619c31259d4f0408d9ea645eaccbc9fdeda9719872bb95a02e3edf83838360405180848152602001806020018281038252848482818152602001925080828437600081840152601f19601f82011690508083019250505094505050505060405180910390a1505050565b600660009054906101000a900473ffffffffffffffffffffffffffffffffffffffff1681565b600060028242604051602001808373ffffffffffffffffffffffffffffffffffffffff1660601b8152601401828152602001925050506040516020818303038152906040526040518082805190602001908083835b602083106111e957805182526020820191506020810190506020830392506111c6565b6001836020036101000a038019825116818451168082178552505050505050905001915050602060405180830381855afa15801561122b573d6000803e3d6000fd5b5050506040513d602081101561124057600080fd5b81019080805190602001909291905050509050919050565b828054600181600116156101000203166002900490600052602060002090601f016020900481019282601f1061129957805160ff19168380011785556112c7565b828001600101855582156112c7579182015b828111156112c65782518255916020019190600101906112ab565b5b5090506112d49190611358565b5090565b828054600181600116156101000203166002900490600052602060002090601f016020900481019282601f1061131957803560ff1916838001178555611347565b82800160010185558215611347579182015b8281111561134657823582559160200191906001019061132b565b5b5090506113549190611358565b5090565b5b80821115611371576000816000905550600101611359565b509056fe566f746572206163636f756e742061646472657373206e6f742072656769737465726564566f746520616c7265616479206361737465642066726f6d2074686973206163636f756e74a2646970667358221220cef4d4c1475977b48471cd1a21ee52dcd182752857726e61722df841aaca9a0364736f6c63430007000033",
  "immutableReferences": {},
  "source": "pragma solidity ^0.7.0;\r\n//SPDX-License-Identifier:UNLICENSED\r\ncontract Election {\r\n    // Model a Candidate\r\n    \r\n    struct Candidate {\r\n        uint id;\r\n        uint partyId;\r\n        string name;\r\n        uint voteCount;\r\n    }\r\n    struct Constituency {\r\n        uint id;\r\n        string name;\r\n        mapping(uint => Candidate) candidates;\r\n        uint[] candidateKeys;\r\n    }\r\n\r\n    mapping(uint => Constituency) constituencies;\r\n    uint[] constituencyKeys;\r\n    mapping(uint => string) public parties;\r\n    mapping(address => bytes32) public voterIds;\r\n    mapping(address => bool) public hasVoted;\r\n    mapping(address => uint) public voterConstituencyIndex;\r\n\r\n    address public admin;\r\n    uint public electionEndTime;\r\n\r\n    constructor(uint _electionDuration){\r\n        admin=msg.sender;\r\n        electionEndTime=block.timestamp+_electionDuration;\r\n    }\r\n\r\n    // voted event\r\n    event votedEvent(uint _candidateId,bytes32 _voterId);\r\n    event addedConstituencyEvent(uint _id,string _name);\r\n    event addedCandidateEvent(uint _id,uint _constituencyId,uint _partyId,string _name);\r\n    event addedPartyEvent(uint _id,string _name);\r\n    event addedVoterEvent(bytes32 _id);\r\n    event publishVoteCnt(uint _constituencyId,uint _candidateId,uint _voteCount);\r\n    \r\n\r\n    function addConstituency(uint _id,string memory _name) public {\r\n        require(msg.sender == admin);\r\n\r\n        constituencies[_id].id=_id;\r\n        constituencies[_id].name=_name;\r\n        constituencyKeys.push(_id);\r\n        emit addedConstituencyEvent( _id,_name);\r\n    }\r\n    function addCandidate(uint _constituencyId ,uint _id, uint _partyId, string memory _name) public\r\n    {\r\n        require(msg.sender == admin);\r\n        constituencies[_constituencyId].candidates[_id].id=_id;\r\n        constituencies[_constituencyId].candidates[_id].partyId=_partyId;\r\n        constituencies[_constituencyId].candidates[_id].voteCount=0;\r\n        constituencies[_constituencyId].candidates[_id].name=_name;\r\n        constituencies[_constituencyId].candidateKeys.push(_id);\r\n        emit addedCandidateEvent(_id,_constituencyId,_partyId,_name);\r\n    }\r\n    function addParty(uint _id , string calldata _name) public\r\n    {\r\n        require(msg.sender == admin);\r\n        parties[_id]=_name;\r\n        emit addedPartyEvent(_id,_name);\r\n    }\r\n    function createVoterId(address _address) private view returns(bytes32)\r\n    {\r\n        return sha256(abi.encodePacked(_address,block.timestamp));\r\n    }\r\n    function addVoter(address _address ,uint _constituencyId) public\r\n    {\r\n        require(msg.sender == admin);\r\n        voterIds[_address] = createVoterId(_address);\r\n        hasVoted[_address] = false;\r\n        voterConstituencyIndex[_address] = _constituencyId;\r\n        emit addedVoterEvent(voterIds[_address]);\r\n    }\r\n \r\n    function vote(uint256 _candidateId) public {\r\n        require(voterIds[msg.sender]!=0,\r\n        \"Voter account address not registered\");\r\n        require(!hasVoted[msg.sender],\r\n        \"Vote already casted from this account\");\r\n        //require(\r\n        //    block.timestamp <= electionEndTime,\r\n        //    \"Election has ended.\"\r\n        //);\r\n\r\n        hasVoted[msg.sender] = true;\r\n        constituencies[voterConstituencyIndex[msg.sender]].candidates[_candidateId].voteCount++;\r\n        \r\n        emit votedEvent(_candidateId,voterIds[msg.sender]);\r\n    }\r\n    function publishResult() public{\r\n        require(msg.sender == admin);\r\n\r\n        for(uint i=0;i<constituencyKeys.length;i++)\r\n        {\r\n            for(uint j=0;j<constituencies[constituencyKeys[i]].candidateKeys.length;j++)\r\n            {\r\n                emit publishVoteCnt(constituencyKeys[i], constituencies[constituencyKeys[i]].candidates[constituencies[constituencyKeys[i]].candidateKeys[j]].id, constituencies[constituencyKeys[i]].candidates[constituencies[constituencyKeys[i]].candidateKeys[j]].voteCount);\r\n            }\r\n        }\r\n    }\r\n}\r\n",
  "sourcePath": "D:/hitansh/college/ThirdSem/ITC306_Practicum/bcv/dApp/contracts/election.sol",
  "compiler": {
    "name": "solc",
    "version": "0.7.0+commit.9e61f92b.Emscripten.clang"
  },
  "schemaVersion": "3.3.2",
  "updatedAt": "2020-12-24T22:38:57.200Z",
  "networkType": "ethereum",
  "devdoc": {
    "kind": "dev",
    "methods": {},
    "version": 1
  },
  "userdoc": {
    "kind": "user",
    "methods": {},
    "version": 1
  }
}